:020000022000DC
:106000000000012045630200A5630200A7630200AF
:10601000A9630200AB630200AD6302000000000050
:10602000000000000000000000000000AF6302005C
:10603000B163020000000000B3630200B563020018
:1060400089860200B7630200C58A0200B7630200B6
:10605000B7630200B763020041890200B763020020
:10606000B7630200B7630200B7630200B7630200C0
:10607000B7630200B7630200B7630200B7630200B0
:10608000B763020099710200B7630200B7630200B0
:1060900035720200B763020069DC0200B7630200D8
:1060A000B7630200B7630200B7630200B763020080
:1060B000B7630200B76302000000000000000000A8
:1060C000B7630200B7630200B7630200B763020060
:1060D000B7630200B7630200B7630200000000006C
:1060E00000000000000000000000000000000000B0
:1060F00000000000000000000000000000000000A0
:10610000000000000000000000000000000000008F
:10611000000000000000000000000000000000007F
:10612000000000000000000000000000000000006F
:10613000000000000000000000000000000000005F
:10614000000000000000000000000000000000004F
:10615000000000000000000000000000000000003F
:10616000000000000000000000000000000000002F
:10617000000000000000000000000000000000001F
:10618000000000000000000000000000000000000F
:1061900000000000000000000000000000000000FF
:1061A00000000000000000000000000000000000EF
:1061B00000000000000000000000000000000000DF
:1061C00000000000000000000000000000000000CF
:1061D00000000000000000000000000000000000BF
:1061E00000000000000000000000000000000000AF
:1061F000000000000000000000000000000000009F
:10620000314932480A1A02D0072291438D4630495B
:1062100030480A1A06D00722914381F309880222E6
:1062200082F314882C482D492D4A00F03CF82D4863
:106230002D492E4A00F037F82D482E492E4A00F0FD
:1062400032F82E482E492F4A00F02DF82E482F49BB
:106250002F4A00F028F82F482F49304A00F023F841
:106260002F483049304A00F01EF8304830490022AB
:1062700000F024F82F483049002200F01FF82F4A80
:1062800090471F481F49884205D00268043003B474
:10629000904703BCF7E700208646EC46002000212B
:1062A000274A9047FEE7884207D0521A05D0037864
:1062B00001300B700131013AF9D17047884202D0A8
:1062C00002700130FAE770470000012000E0002072
:1062D0000000012000000120F40303000859002001
:1062E00004700020BC630200BC63020070EA02007C
:1062F000F403030008590020085900206CEC020048
:106300006CEC02006CEC02006CEC02006CEC020025
:106310006CEC02006CEC02006CEC0200F403030075
:10632000F01A0300047000200470002004700020A4
:10633000B49E0020B49E0020B49E00206D63020035
:10634000A9AC02001048804710484FF0070188436D
:1063500085460F4880470F48016841F4700101608D
:10636000BFF34F8FBFF36F8FFFF74ABF0A480B4948
:106370000B4A884207D0521A05D0037801300B70BF
:106380000131013AF9D17047B963020000000120E0
:106390008582020088ED00E06CEC020008590020C4
:1063A00008590020FEE7FEE7FEE7FEE7FEE7FEE70E
:0C63B000FEE7FEE7FEE7FEE7704700BFD7
:1063BC007047000007B5044B0093044A402300F0DB
:1063CC0032F803B05DF804FBDD63020005700020B9
:1063DC002DE9F84389461446B2B10F4B0F4E0325F5
:1063EC00002743F00108224609EB0701002005F0C5
:1063FC00E1FD0744241A48B933782BB14FF47A40A5
:10640C00C047013D02D13570BDE8F88301233370DC
:10641C00002CE8D1F8E700BF70EC020004700020FB
:10642C00704705F0FBBDF0B595B01C461646084606
:10643C000D4601F08FFD1A9B0D93CDE908640024E5
:10644C002346082205A928460A948DF82C400C9462
:10645C0001F09DFD079B0293069B03939DF814305E
:10646C008DF8114003F00302012A1DD1BDF8144030
:10647C00059EC3F3C203C4F383148DF81030A2003D
:10648C0008230EA9284601F082FDC6F3952608AB19
:10649C000093224602AB0EA9304600F0DBFB2846E7
:1064AC0001F05CFD15B0F0BD022AF8D1BDF8164024
:1064BC00C3F3C203A4098DF810300827082C264614
:1064CC0028BF08263B4632460EA9284601F05FFD40
:1064DC00A41B08AB02AA31460EA8374400F01EFCE0
:1064EC00002CEBD1DBE7000008B5FFF79AFF042185
:1064FC00034800F01DFB034B01225A7108BD00BF7D
:10650C005CEC020008590020037813F0040216D04A
:10651C0003F00303012B03D0022B09D00120704799
:10652C000A6800880232C0F3831002440A60F5E75F
:10653C000B684288023303EB92130B60EEE71046B4
:10654C00704700002DE9F04F87B000230446851CEE
:10655C000DF107000F4690468DF8073001F05EF8FC
:10656C00454806683E60D0E90132134401339B1B59
:10657C00824600F21C4600F5836900F21447AB42D8
:10658C001BD30022B8F1000F70D0052363F3070270
:10659C0064F38912DAF80010DAF808309DF8070075
:1065AC000B4003330D444AF82320CAF8005001F085
:1065BC0059F8012007B0BDE8F08F0121304601F0F9
:1065CC00E9F8484601F0FCF8384601F0F9F8DAF839
:1065DC000400DAF808B0029000EA0B0003300AEB72
:1065EC00800002A9FFF790FF029B50BB0BEA03024D
:1065FC000AEB820203F1020CD2680392013303EA24
:10660C000B0B0AEB8B0B02F00302012ACDF808C02E
:10661C00DBF80C1022D0022A16D08346384601F043
:10662C00D2F810B1029BCAF804305946304601F03A
:10663C00B1F8DAE901231344DAF8002001339B1A8C
:10664C009DE70BEA0300C9E7BDF80E309B09033345
:10665C004FEA114B0CEB93030293DFE7BDF80C30C0
:10666C00C3F383134FEA114B6344F5E7062363F33B
:10667C00070264F39F528DE7187100200B4B0C48F6
:10668C00FF2210B59A600022C3F81824C3E9002237
:10669C00C3F8142483F8202401F015FC044610B927
:1066AC00044801F07EFC204610BD00BF187100208C
:1066BC0028EC020094EC020030B50A4C71B10A4A85
:1066CC000A49121BD20800239A4201D1002030BD86
:1066DC0031F82350854202D00133F5E7034654F8D4
:1066EC003300F4E7A8EB020028EC02000859002064
:1066FC00094B013903EBC000032909D8DFE801F08D
:10670C000A020406042070470079704740797047EC
:10671C000020704702207047A8EB0200034BD3E91E
:10672C000030C31A58425841704700BF18710020FE
:10673C002DE9F04387B0FFF7F1FF0646002840F043
:10674C00FB807E4DC5F81804BFF34F8F6868AC68AA
:10675C0002902040033005EB800002A9FFF7D4FE25
:10676C00029B18B1D5F81824002A5FD004EA030262
:10677C00991C013305EB8202234005EB8303D2689D
:10678C00DB68049302F00303022B0392029162D1A3
:10679C00BDF80E306A484FEA9318B8F1500FC14655
:1067AC0028BF4FF0500969F38F1309F10801ADF8B8
:1067BC000E3001F0A0FB0746002800F0A88001F085
:1067CC00C9FB03A900230822384601F0D6FB029925
:1067DC0024EA01060136B600B14535D95FFA89F9CC
:1067EC007EB3F6B2A9EB0609214003315FFA89F4B6
:1067FC00B146544E05EB810108234A46384601F058
:10680C00BCFB36B109F1080322463146384601F08B
:10681C00B4FB029B08F1030803EB98030293D5F831
:10682C001834002B4BD1D5F810445BE02A689A42FF
:10683C0004D86A60304607B0BDE8F08304EA030070
:10684C0088E740493446D7E72140033108234A46BC
:10685C0005EB8101DAE7012B59D1BDF80C30384832
:10686C00C3F38311062928BF062161F38913023172
:10687C008900ADF80C3001F03EFB0746002846D0ED
:10688C0001F068FB0023082203A9384601F075FBD0
:10689C000026BDF80C20C2F38312B300964203F11C
:1068AC000803BCD202994A1C21400331029205EB29
:1068BC0081010422384601F060FB0136E9E73846D5
:1068CC0001F04CFBFFF72AFF80F00100C6B2B1E7E4
:1068DC00E3685B7923B1236839461B6820469847E7
:1068EC00E3681C68002CF3D1384601F037FB0DF13E
:1068FC0007008DF8074000F091FED5F818340BB95D
:10690C00029B6B609DF8070000F0ACFEDAE7D5F84F
:10691C00104454B90C4B0D480D49C01AC008000462
:10692C0040F0020000F06EF8CCE7236820469B682C
:10693C009847E3681C68ECE700267BE71871002099
:10694C0028EC020024710020A8EB0200D0EB02001E
:10695C00A0EC02002DE9F74F284C80460F469246DA
:10696C0001A9012218469B46D4F80890FFF7EAFDCE
:10697C0080B3019D0026A91C5E4506EB010233D1B4
:10698C0000211F4800F0DBFE80F310006A1C02EAB5
:10699C00090204EB8202000405EA0903033340EA0E
:1069AC001840D06014F8232068F3C50204F82320A3
:1069BC0034F8232066F3891224F8232054F823207A
:1069CC0067F39F2244F8232002F0F80242F0010200
:1069DC0004F8232094F820341BB1FFF7A9FE0028FB
:1069EC00FBD103B0BDE8F08F09EA020204EB82028E
:1069FC005AF82630D3600136BEE700BF187100206C
:106A0C003475002000231A46FFF7A4BF07B50123F5
:106A1C00019201AAFFF79EFF03B05DF804FB07B5D6
:106A2C00CDE9002302236A46FFF794FF03B05DF81B
:106A3C0004FB1FB5CDE90123069B039301AA032395
:106A4C00FFF788FF05B05DF804FB7FB5CDE90023A7
:106A5C00089B0293099B03930A9B04930B9B05933E
:106A6C006A460623FFF776FF07B05DF804FB0000CB
:106A7C002DE9F34780462C4CD01C8A46174601A9B9
:106A8C0000228008A568FFF75DFDC8B3DDF804900F
:106A9C00A66809F10200019001362840361AB600AA
:106AAC000330B74204EB800034D83A46514607F025
:106ABC0089FB00211D4800F042FE80F3100009F113
:106ACC0001032B4004EB83034FEA184242EA0042D5
:106ADC00DA6005EA0903033304EB830214F823108C
:106AEC0068F3C50104F82310518867F38F115180A6
:106AFC0034F8232002F0380242F0020224F823205A
:106B0C0094F820341BB1FFF713FE0028FBD102B020
:106B1C00BDE8F0873246514607F054FBBA1B0AEB2E
:106B2C00060104F10C00C2E7187100203475002036
:106B3C0030B50F49D1F81024002314463CB9C46871
:106B4C00237152B9C1F810042260184630BDE468B4
:106B5C0025799D4206D02468F0E7D268116821603F
:106B6C001060F2E701330A2BE7D14FF0FF33ECE76B
:106B7C0018710020094A38B50123D2F8104482F864
:106B8C0020341D4604B938BDE3685D712368204686
:106B9C005B689847E3681C68F4E700BF1871002035
:106BAC00037A052B10B50C460FD0437A23B1084A53
:106BBC000849204600F06AFE0749204600F066FEB0
:106BCC002046BDE8104000F056BE002AF8D0F3E78E
:106BDC00E7EC0200ECEC020094F30200C38873B5FE
:106BEC0004460D4633B1144A00921449144A2846FF
:106BFC0000F04CFE217A05291CD0637A4BB1A08899
:106C0C00FFF776FD0F4B104953F82020284600F073
:106C1C003DFE227A0D4BA08853F822600021FFF72D
:106C2C004BFD0B4903463246284602B0BDE8704086
:106C3C0000F02CBE02B070BDE7EC0200F7EC0200D5
:106C4C00EFEC0200B8EC0200ECEC02001CED0200D0
:106C5C000FED02002DE9F04385B01F460C9D00237B
:106C6C0006460C46904695F80C902B7329463846F0
:106C7C00FFF7B4FFB8F1060F09D8DFE808F00412EB
:106C8C00181F283340003146284600F0FFFD002233
:106C9C0029463846FFF784FF85F80C9005B0BDE80F
:106CAC00F08322683146284600F0F0FDEFE7D4E986
:106CBC0000233146284600F0E9FDE8E7A36800937D
:106CCC003146D4E90023284600F0E0FDDFE7E36815
:106CDC000193A36800933146D4E90023284600F0C1
:106CEC00D5FDD4E723690293E3680193A36800936D
:106CFC003146D4E90023284600F0C8FDC7E7636994
:106D0C00039323690293E3680193A36800933146CC
:106D1C00D4E90023284600F0B9FDB8E708292DE98D
:106D2C00F84F80460E4617461C4636D8002593F879
:106D3C000C901D7319461046FFF750FFDFF87CA02E
:106D4C00DFF87CB0AE422AD918F805205946204607
:106D5C0000F09CFD0135082DF4D11649DFF864B024
:106D6C00204600F093FD0025AE421DD918F805A071
:106D7C00504607F06FF9002814BF52462E22594690
:106D8C00204600F083FD0135082DEDD1012221466E
:106D9C003846FFF705FF84F80C90BDE8F88F514694
:106DAC00204600F073FDD5E70349204600F06EFD48
:106DBC00E9E700BFE2EC020071FB02006FFB02008E
:106DCC00DCEC0200E4EC02002DE9F04F394E87B008
:106DDC004FF00009384B1B785FFA89F5AB4202D8AB
:106DEC0007B0BDE8F08F354BD3F800A01AF835008A
:106DFC000124D6E9001EA0F12002C0F1200304FA00
:106E0C0002F224FA03F3134304FA00FC009301EAA0
:106E1C000C030293009B0EEA03030393DDE90223A8
:106E2C0013430AEBC50B41D0009B21EA0C012EEA5F
:106E3C000303C6E9001301F073FD1AF8355020491D
:106E4C00A5F12002C5F1200304FA02F224FA03F39F
:106E5C001343D1E900C2AC40134004EA0C01059382
:106E6C000024C3B2CDE90034009A0491C5F120038B
:106E7C00A5F1200122FA03F302FA01F848EA03080B
:106E8C001346AB401F46DDE90434444508BFBB4202
:106E9C000CD1DBF804304BB19BF801104A1E514267
:106EAC005141081A414241412846984709F10109CC
:106EBC0090E700BF08760020D475002010760020E3
:106ECC00007600202DE9F0418046204800F090FB30
:106EDC00D0BB0125A8F12004C8F1200325FA03F347
:106EEC0005FA04F41C431A4BD3E9001205FA08F511
:106EFC0001EA050602EA040756EA07001E461DD100
:106F0C00404601F00DFD134BD3E9001288B1294323
:106F1C002243C3E90012D6E900231C430E4B0B4855
:106F2C0019681543C6E900540022BDE8F04100F091
:106F3C0019BB21EA050122EA0402EAE721EA050568
:106F4C0022EA0404C3E90054BDE8F081DC7500209A
:106F5C000876002000760020D8750020042A2DE940
:106F6C00F34105460C4616463AD901F017FCD8B148
:106F7C001C4B1D491D601D4BDFF884801C701C4B85
:106F8C0000221E600023C1E900231A49C1E9002335
:106F9C00013CE4B200260327FF2C0CD1164A1748FB
:106FAC00002100F0CDFA03E001F0BEFB0028DFD099
:106FBC0002B0BDE8F08123B205EBC30201A99278BF
:106FCC008DF8052015F833008DF8066042468DF8D3
:106FDC00047001F0EDFB013CE4B20028DCD0E7E7E3
:106FEC000720E5E71076002000760020D4750020FD
:106FFC00D875002008760020D56D02007CED0200CB
:10700C00D16E020070B5084D084E00242B789C42BE
:10701C0001D3002070BD3368012113F8340001F056
:10702C003BFC0134F2E700BFD47500201076002041
:10703C001FB50021039001AA44F20100CDE9011112
:10704C0000F004F805B05DF804FB000010B572B652
:10705C00FFF790FDFFF76CFB0028FBD1104B114C98
:10706C001149E41AE408240444F00100FFF7CAFCB7
:10707C000E4B1B68DB0700D500BE0D4944F0020027
:10708C00FFF7C0FCBFF34F8F0A490B4BCA6802F4E1
:10709C00E0621343CB60BFF34F8F00BFFDE700BF2F
:1070AC00A8EB0200D0EB020080ED0200F0ED00E056
:1070BC008CED020000ED00E00400FA05094A53785B
:1070CC0091780133DBB2994208BF002311789942C1
:1070DC001FBF03705078182303FB002014BF04302B
:1070EC00002070471476002073B5054600240DF17E
:1070FC0007000E468DF8074000F090FA0DF10600DF
:10710C00FFF7DCFF90B10670094B9DF80620456037
:10711C005A709DF8070000F0A5FA24B9054B4FF4FE
:10712C008012C3F80021204602B070BD0424F0E7A1
:10713C001476002000E100E0024B4FF43C6043F079
:10714C0001031847A0ED020038B50C4B0C4C4FF462
:10715C000032C3F8802001254FF48033C4F8483343
:10716C00C4F808336560FFF7E7FF064BA560002401
:10717C001C60FFF7E1FF044B1C7038BD00E100E020
:10718C00001001403077002021770020F8B51F4B0C
:10719C001F491B680025C1F84051C1F84451C1F882
:1071AC004851C1F84C51C1F80051C1F804514BB3CE
:1071BC00D1F8044517490968641A24F07F442F4616
:1071CC001A68A24209D8A41A15441A7CDE691AB1AD
:1071DC001F74D3E905209047AEB90F4A0F4B1178B5
:1071EC001B788B4205D10133DBB2022B08BF002385
:1071FC00137012780A4B43F822500A4B4FF480124A
:10720C00C3F80021F8BD3346DAE700BF347700201D
:10721C0000100140307700202D7700202C770020C3
:10722C002477002000E100E02DE9F04FA14AA249AB
:10723C0013780978A14D994285B03CD00133DBB26B
:10724C00022B08BF002313709D4912789D4B0F68C9
:10725C0053F822003B1823F07F4300220B602B686D
:10726C0016461446944613B942B12B6006E01968D1
:10727C0081420ED902B12B60091A196001272B68C3
:10728C00DFF848A201934FF00008BEB9DFF844B212
:10729C0066E0401A0C44D968C3F800C0D3F81CE06F
:1072AC0031B13A1922F07F42C3E90121DE611E4659
:1072BC0001227346D7E700263746E0E73446F669E5
:1072CC007F4A63681268DFF810C2A068991A21F02F
:1072DC007F41614500F2A6800144216001222274A5
:1072EC002A680023C4E90133E361002A40F0A3803B
:1072FC002C60CAE75A1C9BF80210D2B291428BF850
:10730C00002004BF00228BF80020182202FB03B3DC
:10731C001A799C68022A1CD0032A12D0012A1FD188
:10732C00207CE8B9D3E90312A2605A69E2609A6939
:10733C00654BA2611B78002B0CBF0B4603466360A8
:10734C00BEE700222B681146002B67D142B12B609F
:10735C0006E029680A468946002A5AD1002323747C
:10736C009BF800309BF801209A42C3D12B68B8F1EE
:10737C00000F04D1019A9A4201D1002F43D0002B67
:10738C0073D0D3F800A0514D4D4BD5F804751C6843
:10739C00DFF848813E1B98F8003026F07F46033614
:1073AC009BB94FF48033C5F84433C5F80433484BCC
:1073BC004FF400324FF00109C3F880211A60C5F870
:1073CC000090FFF7B9FE88F80090B2452CBF5444EA
:1073DC00A41924F07F44C5F84045D5F80435DB1BCF
:1073EC0023F07F43E41B033324F07F44A3420AD9E8
:1073FC00D5F80435C5F84035FFF79EFE344B4FF4F5
:10740C000032C3F80021304B00221A7005B0BDE8E1
:10741C00F08F94422CD09146D2699DE719740122C9
:10742C00DB6991E7D31A23F07F43834234BFC31A3D
:10743C000023236052E721681368994213D8591A24
:10744C001160E26154E7091AD8691A4638B103464B
:10745C0018688842F7D3401A186018461346216002
:10746C00E061DC6111E71346F2E7FFF76DFECAE756
:10747C004C4511D1CB692B6073B9DFF844E0012086
:10748C00CDE90212CAF80800CEF800300E4B187085
:10749C00FFF752FEDDE902121368D269C9F81C200D
:1074AC0012B11068034413602B68994218BF4FF057
:1074BC00010853E72C7700202D770020347700202B
:1074CC003077002024770020207700200010014026
:1074DC0000E100E014760020FEFF7F002177002001
:1074EC0008B5FFF731FE104B00200B2218809A7064
:1074FC000E4B18600E4B18700E4B18700E4B4FF451
:10750C008012E021C3F8802183F814131A6002F171
:10751C008042A2F56F22C2F8080583F81113074BBD
:10752C00D2F804251A6008BD1476002034770020A8
:10753C002C7700202D77002000E100E03077002030
:10754C00074B9B784BB132B128B10368187C20B93A
:10755C0059745A617047072070470820704700BF64
:10756C00147600202DE9F7431E4FBB7805460E46D6
:10757C009046A3B398B304292FD943697BB3437CBA
:10758C000024012B0DF107000CBF8946A1468DF894
:10759C00074000F043F80DF10600FFF78FFDD0B166
:1075AC0001230370104B4560D3F80435C0E90498EF
:1075BC00C0E902369DF806307B709DF8070000F09C
:1075CC0051F824B9094B4FF48012C3F8002120461E
:1075DC0003B0BDE8F0830424EFE70724F7E70824A1
:1075EC00F5E700BF147600200010014000E100E038
:1075FC00064A92783AB130B1426922B10022027443
:10760C000221FFF771BD0820704700BF14760020DF
:10761C00014BD3F8040570470010014070B5EFF32F
:10762C00108672B60C4A946801239CB993600B4B7C
:10763C000B4DD3F8801029401160C3F88050D3F85B
:10764C00841051604FF0FF32C3F88420047006B9E7
:10765C0062B670BD0370FAE73877002000E100E0F5
:10766C00FC06FFBD084B9A6810B55AB150B9EFF340
:10767C00108172B6054A1C6814605C68546098608E
:10768C0001B962B610BD00BF3877002000E100E000
:10769C0037B550E8023F1FFAA3F5C488A54202BFD4
:1076AC00BFF32F8F00220DE0C48925448489A542A5
:1076BC0028BF2D1BC3EA054540E80254002CE8D135
:1076CC004FF001028DF803200193019B9DF80320DC
:1076DC000B6002F0FF0322B14B880068184403B022
:1076EC0030BD1846FBE70A884B889A4209D150E80E
:1076FC00022FC2EA224240E80223002BF7D10120DC
:10770C0070470020704701F01F024B090121914086
:10771C0000EB830000F01DB801F01F0301229A401A
:10772C004B0900EB8300D14300F029B84B0901F061
:10773C001F0150F82300C84000F00100704750E8CA
:10774C00002F0B4640E8003C9CF0000FF7D1104690
:10775C00704750E8003F43EA010240E8002C9CF0DF
:10776C00000FF6D11046704750E8002F02EA0103D3
:10777C0040E8003C9CF0000FF6D11046704750E8F2
:10778C00003F03EA010240E8002C9CF0000FF6D108
:10779C001046704750E8003F03EB010240E8002C14
:1077AC009CF0000FF6D11046704750E8003FA3EB59
:1077BC00010240E8002C9CF0000FF6D110467047F7
:1077CC000121FFF7C6BF0021FFF7CEBF10B590B166
:1077DC00D0E9012301689B1ADBB20A60013BDBB2E2
:1077EC00FF2B026802D10020107110BD11684C1CD7
:1077FC0014600B70F2E70E20F7E737B5054600244E
:10780C000DF107008DF80740FFF708FF2A686B6839
:10781C00116899420ED9481E106011F8014CEB68A2
:10782C00298A01FB0434AB6811791B1ADBB299422B
:10783C0038BF13719DF80700FFF714FF204603B003
:10784C0030BD37B5054600230DF107000C468DF809
:10785C000730FFF7E3FE2A681368591C1160E968CA
:10786C00641A298AB4FBF1F41C709DF80700FFF729
:10787C00F9FE03B030BD826810B504462AB14369E5
:10788C000168006998470023A36010BD0EB403B5CE
:10789C00039921B104AB01AA019300F06DF802B079
:1078AC005DF804EB03B07047826830B40468551C73
:1078BC008560A154D0E901329A4202D330BCFFF763
:1078CC00DABF30BC704700002DE9F84F9946DDE96E
:1078DC000A431746824688460A460126BA420FD208
:1078EC004E4538BF4E4613F0010B01D164B900244C
:1078FC000125B9F1010F1AD909F1FF397D43F8E7D8
:10790C00B2FBF7F20136E9E79B070ED5B9F1000F90
:10791C000CBF30252025A642EAD2013C2946504610
:10792C00FFF7C2FF002CF6D1E1E72025F3E7B8FB07
:10793C00F5F39F42E2D9DFF83C90B8FBF5F35046E3
:10794C0019F8031005FB1388FFF7AEFFB5FBF7F32F
:10795C00BD4207D2BBF1000F02D00CB1A64203D33B
:10796C00BDE8F88F1D46E8E720215046013CFFF7A3
:10797C009BFFF2E7A6ED02002DE9F74F05461746EF
:10798C008846002900F0308118F8011B49B92B7B7F
:10799C00002B00F02981284603B0BDE8F04FFFF71B
:1079AC006ABF252940F0C080002698F800302D2BA6
:1079BC00424608F1010823D0302B24D02B2B25D0A4
:1079CC0000242A2B02F1010123D13B681A1D1B68EC
:1079DC003A601C440A4613782E2B26D101324FF004
:1079EC000009104610F8011BA1F1300CBCF1090F75
:1079FC001DD80A2303FB0913A3F130090246F0E753
:107A0C0046F00106D1E746F00206CEE746F0040642
:107A1C00CBE711F8013CA3F130000928DBD80A228E
:107A2C0002FB0434303C0A46CBE74FF0000912F855
:107A3C00011B01F0FB0068289046F8D069290ED094
:107A4C004AD8582964D006D825296DD098F800302A
:107A5C00002B99D19BE7632962D06429F6D13A684F
:107A6C00D2F800A0111D8AEAEA723960A2EBEA7220
:107A7C004FF0010B092A5BDCCB4538BFCB462CB150
:107A8C00BAF1000F01DB720700D5013CB30702D538
:107A9C00B9F1000F04D0F00702D4002C4ED1002411
:107AAC00BAF1000F52DACAF1000A2D212846FFF76D
:107ABC00FBFE06F00302022A05D1B9F1000F02D138
:107ACC00002C47D10024CDE900464B460A225146F2
:107ADC002846FFF7F9FEB9E773294CD014D8702962
:107AEC00B4D13B681A1D3A60302128461C68FFF758
:107AFC00DBFE78212846FFF7D7FE00220823CDE9CC
:107B0C00003221461022E3E775292BD078299DD12C
:107B1C0039680A1D3A60CDE900464B46102228E030
:107B2C003B681A1D19783A602846FFF7BDFE8DE7B1
:107B3C000A230BF1010BB2FBF3F29BE7A345AFD287
:107B4C0020212846013CFFF7AFFEA6E77107B0D510
:107B5C002B21ABE7A345B6D230212846013CFFF7D9
:107B6C00A3FEADE73968CDE900460A1D3A604B46E5
:107B7C000A220968ACE73B681A1D3A6016F0010648
:107B8C00D3F800A020D1BAF1000F03D0504606F074
:107B9C0097FB0646B44200D9C4B90AF1FF3A1EE07D
:107BAC0028460136FFF780FE1AF806100029F7D197
:107BBC00A642BFF44BAF002C3FF448AF202128461F
:107BCC00013CFFF771FEF3E70026EDE72021284684
:107BDC00013CFFF769FEDDE72846FFF765FE1AF862
:107BEC00011F0029F8D131E703B0BDE8F08F29DF80
:107BFC00704728DF704770B503689D6886B00446EF
:107C0C000E466DB114220021684606F004FBA368F1
:107C1C000593237901962BB1012B0DD06846A8470B
:107C2C0006B070BD01238DF8003023690293E36820
:107C3C00039363690493F1E702238DF80030E36842
:107C4C001B030293F5E70000034B187A0122B0FAEC
:107C5C0080F05A74400970475477002070B5244C5A
:107C6C00244E237A25463BB923492448FFF710FDBF
:107C7C00306008B9606070BD346802232B722379C0
:107C8C0073B1012B24D020460321FFF7B4FF00234E
:107C9C002B726B6018491948BDE87040FFF723BD83
:107CAC00D4E90523D21AB2F5805F28BF4FF4805275
:107CBC00D4E903109208012A38BF01221944184450
:107CCC00FFF795FF50B11128DDD101232B72D2E7BC
:107CDC00D4E903031844FFF78CFFF3E72B7C002B4C
:107CEC00C9D10146BDE87040022000F009B800BFC0
:107CFC00547700206C7700206877002044770020B0
:107D0C0038B5831E012B45D8234C237A002B41D048
:107D1C00022B09D1032830D0204B1B680022E260D3
:107D2C001A793AB1012A22D0637C7BBBBDE838407A
:107D3C00FFF794BFD3E905128D1AB5F5805F94BF98
:107D4C00521902F580529A619142EDD102284FF0FE
:107D5C00000308BF19462372104B18BF0D21186879
:107D6C00FFF749FF0E490F48FFF7BDFCDCE71A6926
:107D7C0001321A615B699A42E7E7E3680133082B29
:107D8C0001D8E360D0E70023E360DFE7BDE83840CB
:107D9C0005F040BF38BD00BF547700206C77002041
:107DAC00687700204477002000F0FD03012B08D1F8
:107DBC00044B00225A74421E504250411874FFF773
:107DCC004DBF7047547700200B684A68436093425C
:107DDC0008BF0023016008BF43607047436843B18C
:107DEC000268916852680B449342436004BF0023BD
:107DFC004360704710B50D49A1F59472914201D8BA
:107E0C0000200FE08B1ADB1003EBD3735B1002EB3B
:107E1C00C30452F83330834205D802D204F108026D
:107E2C00ECE7606810BD2146E8E700BF08EF0200F0
:107E3C0008B5FFF7DFFF024B002808BF184608BD46
:107E4C00CCED02002DE9F047B0F806904479D2F859
:107E5C0000A09DF8208009FB04F4043C06460AEBC4
:107E6C000300A0420F4688BFA4EB030A191DC2F8F9
:107E7C0000A0B1FBF9F509FB15114DB9A9EB0104F3
:107E8C00544528BF5446BAF1000F04D1BDE8F08721
:107E9C003668013DF1E704317B1970182246B8F1C0
:107EAC00000F0ED001461846AAEB040A06F08AF918
:107EBC00D145254436684C464FF0000128BF544646
:107ECC00E1E71946F0E7FFF781BCF8B546790146C2
:107EDC00721E0546002393422D6803D30024A6424C
:107EEC0002D8F8BD0133F6E70F682846FFF7A9FC66
:107EFC0001343946F3E72DE9F843068ACD1C0746D1
:107F0C00FFF77BFC043E35440446B5FBF6F5F0B1B7
:107F1C004FF48073EDB28380C680013D07608146CB
:107F2C004FF00008A84512D23846FFF766FC06460B
:107F3C0048B163790133637108F10108C9F8000095
:107F4C0007608146EEE72046FFF7BFFF3446204628
:107F5C00BDE8F88301210430FFF71CBC10B50121EA
:107F6C0004460430FFF721FC10F0FF0F04D120462B
:107F7C00BDE81040FFF7A9BF10BD1FB5039200224A
:107F8C00009203AAFFF75EFF05B05DF804FB1FB576
:107F9C0003920122009203AAFFF754FF05B05DF88B
:107FAC0004FB836800225A609A60C3E90422DA60F9
:107FBC001A6070470648074A03780749D35C0122C8
:107FCC0013B1043001F0BEB90C3000F09DBF00BFFE
:107FDC0010590020A4770020987700200648074A03
:107FEC0003780749D35C012213B1043001F05CB96A
:107FFC000C3000F035BF00BF10590020A4770020D2
:10800C009977002037B50578012D05D0002D30D09B
:10801C00022D23D003B030BD43681C4C1978204688
:10802C0000F0CDF878B18DF800500190184B6846EF
:10803C001B689847A168E368A2885B1A9A4209D327
:10804C00FFF7B8FFE6E7A268E3689A42F2D08DF832
:10805C000000EBE70F4B01221A70DBE7C3688DF8C9
:10806C0000500193FFF7A6FF094B68461B68984721
:10807C00D0E70949094800F0B4F810B9FFF7AEFF92
:10808C00C8E703238DF80030EEE700BF74770020BB
:10809C007077002084770020997700208877002063
:1080AC00F0B51F46234B89B006461A600C460029D2
:1080BC003DD08A882048096800F072F8002834D135
:1080CC00A289A1681D4800F06BF800282DD11C4D29
:1080DC000FCD6C460FC495E80F0084E80F00736950
:1080EC000693337C174A18488DF81C70003318BF60
:1080FC0001238DF81430737C002B14BF0E23002346
:10810C008DF81530F3680293B368039333680193C9
:10811C0069467368009300F06BFA30B90B4B18701A
:10812C003368013301D0FFF745FF09B0F0BD0720DC
:10813C00FBE700BF70770020747700208877002061
:10814C00C4F2020011800200105900208477002034
:10815C0010B501460E4800F032F80446A8B90D4897
:10816C000D4A0378D35C63B1043001F0DFF860B9D9
:10817C000A49074800F035F838B9BDE81040FFF758
:10818C002DBF0C3000F0B4FEF1E7204610BD00BF4F
:10819C008877002010590020A477002099770020C0
:1081AC0049B152B1531E1A4007D1826001608380DD
:1081BC00C260104670470E2070470920704710B5FA
:1081CC008468C2688388121B934208D3C268134028
:1081DC000268D154C3680133C360002010BD042071
:1081EC00FCE78268C3689A420AD08268838813408D
:1081FC000268D35C0B708368013383600020704786
:10820C00052070470C4B1B78062B10D10B4B1B68B1
:10821C001A070CD10A4B186800F0F003302B08D069
:10822C0000F0E000A0F14003584258417047002094
:10823C0070470120704700BFE00F00F0E40F00F022
:10824C00E80F00F0094B1B78062B0CD1084B1B6870
:10825C001A0708D1074B186800F0F000A0F13003A2
:10826C005842584170470020704700BFE00F00F0A3
:10827C00E40F00F0E80F00F008B5FFF7C3FF28B1DA
:10828C007D4B7E4A1B68C3F304231360FFF7DAFFB0
:10829C0010B17B4B7B4A1A60FFF7B4FF28B17A4BC5
:1082AC007A4A1B68C3F342331360FFF7CBFF20B14C
:1082BC00774AD36823F08073D360FFF7A3FF40B1F4
:1082CC004FF080430022C3F80C21C3F81021C3F8EF
:1082DC003825FFF7B7FF10B16E4B03221A60FFF77A
:1082EC00B1FF40B16C4B05221A6001229A67002243
:1082FC009A603F225A60694B1B78062B50D1684B11
:10830C001B6819074CD1674B1B6803F0F003502B0B
:10831C0046D14FF08052644BD2F80414C3F82015A8
:10832C00D2F80814C3F82415D2F80C14C3F8281585
:10833C00D2F81014C3F82C15D2F81414C3F8301555
:10834C00D2F81814C3F83415D2F81C14C3F840151D
:10835C00D2F82014C3F84415D2F82414C3F84815E5
:10836C00D2F82814C3F84C15D2F82C14C3F85015B5
:10837C00D2F83014C3F85415D2F83414C3F860157D
:10838C00D2F83814C3F86415D2F83C14C3F8681545
:10839C00D2F84014C3F86C15D2F84424C3F87025F5
:1083AC00FFF730FF28B1414B414A1B6803F04F03E4
:1083BC001360FFF727FF48B14FF08043D3F8002438
:1083CC00D20744BF6FF00102C3F80024394B1B687D
:1083DC00062B08D1384B1B68062B01BF374A136894
:1083EC0043F480631360364AD2F8883043F4700348
:1083FC00C2F88830BFF34F8FBFF36F8F4FF010234D
:10840C00D3F80022002A03DBD3F80432002B2FDA36
:10841C002C4B0122C3F80425D3F80024002AFBD0EE
:10842C004FF010221521C2F80012D3F80024002AB4
:10843C00FBD04FF010231522C3F80422214B1A460F
:10844C00D3F800140029FBD00021C3F80415D2F88E
:10845C000034002BFBD0BFF34F8F19491A4BCA685D
:10846C0002F4E0621343CB60BFF34F8F00BFFDE714
:10847C00164B174A1A6008BD240300104035014002
:10848C0074C007400DF0ADBA440200103C0500402A
:10849C00F0ED00E0A005004010560040E00F00F0A9
:1084AC00E40F00F0E80F00F000C00040580200108C
:1084BC00E40E004030010010340100103C17004065
:1084CC0000ED00E000E001400400FA052459002012
:1084DC000090D003044B1A5C012393404FF0A04250
:1084EC00C2F80C35704700BFE4F20200044B1A5C72
:1084FC00012393404FF0A042C2F80835704700BFEB
:10850C00E4F2020008B50020FFF7F0FF0120FFF7AE
:10851C00EDFF0220FFF7EAFF0320BDE80840FFF75C
:10852C00E5BF0000074A4FF0A041105CD1F80435BC
:10853C000122824022EA03001340C1F80805C1F869
:10854C000C357047E4F20200C20708B501460CD5A1
:10855C004FF0A0430322C3F84427C3F84827C3F8BD
:10856C004C27C3F85027FFF7CDFF8B070AD54FF0E8
:10857C00A0430C22C3F83427C3F83827C3F83C2790
:10858C00C3F8402708BD00001FB503788DF80030F4
:10859C0043680193037A8DF80830C3680393054A46
:1085AC00054B684653F8213052F82110984705B016
:1085BC005DF804FB9C770020A07700201FB50378A2
:1085CC008DF800304368019383688DF80830C368D8
:1085DC000393054A054B684653F8213052F8211095
:1085EC00984705B05DF804FB9C770020A07700202D
:1085FC00F0B5184B077891F81DE043F82720164B7F
:10860C0016460A6943F82720144B03F807E00C467A
:10861C0084460FCC89B06D460FC594E80F0085E8F1
:10862C000F000497BEF1000F0AD0002E0C4A6946C9
:10863C0008BF32460CF1040000F06EFD09B0F0BD2D
:10864C00002E084A694608BF32460CF10C0000F0B7
:10865C0047FBF3E7A07700209C770020A47700204D
:10866C0095850200C985020000F18040002382B08C
:10867C00036003680193019B02B07047124B1B68A7
:10868C0010B573B14FF48070FFF7EEFF4FF08043DD
:10869C000122C3F808230D4B587910B95A711B6885
:1086AC0098470B4B1B6873B14FF48270FFF7DCFFDC
:1086BC004FF080430222C3F80823044B01201B68AF
:1086CC00BDE81040184710BD00010040A8770020FD
:1086DC000401004000F1804000F5C040002382B04E
:1086EC00036003680193019B02B07047800000F1A6
:1086FC00A040D0F8003723F44033C0F80037D0F84E
:10870C00003743EA0141C0F800177047054B4FF0A2
:10871C00FF32072843F8202084BF1B1883F8482019
:10872C00704700BFB077002010B5184C94F8583043
:10873C0053BB04F130032021FF22013911F0FF015A
:10874C0003F8012BF9D1C8B2FFF7E0FF01310C2976
:10875C00F9D1042200210E4805F05DFD0D4BE022FD
:10876C0083F806234022C3F880214FF4BE701A60B0
:10877C00FFF7B0FF084B4FF00042C3F8042301236E
:10878C0084F85830002010BD0820FCE7B07700209A
:10879C000478002000E100E000600040034B93F8F7
:1087AC005800003018BF0120704700BFB077002080
:1087BC00F0B5374B1C1894F93040002C1C4664DA89
:1087CC008D78C5F34005002D0BBF082300230C2624
:1087DC000826B34201D10420F0BD54F823700137B0
:1087EC003FD1261844F8232086F8303015B9E2180A
:1087FC0082F848008A78550713D4D60733D58200FF
:10880C0002F1A042D2F8005725F00205C2F8005739
:10881C00204EC50800F007070122BA40775D3A43A5
:10882C0072558A780D7812F0020225D09B0003F164
:10883C00804303F5C0430202D3F8101521F44731ED
:10884C0021F44071C3F810152D04D3F8101502F45F
:10885C00F85205F440352A430A43C3F8102500208A
:10886C00BAE70133B5E74D7800F5E0724FF0A0465A
:10887C00AD0046F82250CBE7083B234493F8501048
:10888C0041EA851583F85050E9E70820A4E700BFBA
:10889C00B07700200478002038B51F4C251895F9C6
:1088AC003020072A17DD224492F848108909032941
:1088BC000CD14FF0A043D3F81035C34013F0010F87
:1088CC0008BF0221BDE83840FFF710BF012914BFD3
:1088DC0003210221F6E7D3B2072B1CD8930003F136
:1088EC00804303F5C043D3F8100540F00100C3F8F2
:1088FC00100502F14000800080B2FFF7EBFE51B191
:10890C0095F9303054F823302BB1012303FA02F2DD
:10891C00024BC3F8042338BDB07700200060004040
:10892C004FF0A043D3F8103523FA00F000F001000B
:10893C00704700002DE9F04F85B000245A4D01948A
:10894C004FF48072012102F1804303F5C04390B2D1
:10895C001B68012B06D1D5F804330B4202D0FFF76C
:10896C00B9FE0C430432B2F5907F4FEA4101EAD1D3
:10897C004E4B1B68012B0AD14FF4BE70FFF7AAFEB9
:10898C004FF0A04344F00044D3F81035019314F099
:10899C00FF0F1AD0464F00250126344210D0AB00F1
:1089AC0003F1804303F5C043D3F81005D3F8101539
:1089BC0057F8253023B1C1F30141C0F30420984787
:1089CC000135082D4FEA4606E7D1002C64DA002267
:1089DC004FF0FF33CDE90223354D01274FF0000A4C
:1089EC00344E54464FF0A04816F9012B531C46D078
:1089FC00D2B222F0C0094FEAD90104A8084402F00F
:108A0C00070310F804CC07FA03F31CEA030F36D063
:108A1C0005EB090C92099CF930C055F82CB0BBF150
:108A2C00000F0AD1032A2AD10DF1080E1EF801C03D
:108A3C004CEA030C0EF801C001E0032AF4D009F54E
:108A4C00E07110F80C0C58F821101842C1F30141D8
:108A5C0005D0022913D1032A0BD1114604E00329B6
:108A6C000DD1032A05D102214846FFF73FFE013400
:108A7C00E4B2BBF1000F02D011464846D8470AF1C8
:108A8C00010ABAF1040FAFD134B14FF0A043019AEF
:108A9C00D3F81035934202D105B0BDE8F08F0193A5
:108AAC00029B03939AE700BF006000407C6100408A
:108ABC00B077002000780020014B1B68184700BFDE
:108ACC000C7800200E4B984237B50D4602D0002092
:108ADC0003B030BD00230DF107008DF80730FEF711
:108AEC009DFD084B1C7914B901221D601A719DF86B
:108AFC000700FEF7B7FD002CE9D01120E8E700BF16
:108B0C00002000400C7800200023435082B04358D2
:108B1C000193019B02B070470A4610B54FF48E7159
:108B2C00FFF7F2FF136A9168C95C136A0133136291
:108B3C00C0F81C1510BD024608B54FF492710068C0
:108B4C00FFF7E2FF4FF484711068FFF7DDFF136845
:108B5C0001221A6008BD8B690A4610B54FF4847166
:108B6C0023B9FFF7D1FFD0F8183510BDFFF7CCFFB4
:108B7C00536AD168D0F81805C854536A013353624C
:108B8C00F3E700001FB501238DF80030044BCDE94D
:108B9C000110D3E900126846904705B05DF804FB5C
:108BAC001478002030B54C4AD2F8043313F4007F0B
:108BBC0085B015464FD0D2F82431002B4BD04FF452
:108BCC0092711046FFF7A0FF4FF40173C2F80833FF
:108BDC00424B93F8291009B9012151603E490222F8
:108BEC008DF80020D1F88024C1F8802403929A6972
:108BFC000292DA6801920022C3E906226846D3E9A0
:108C0C00001290473448D0F81C315BB133490A6AE2
:108C1C004B699A420A464BD291F82830002B47D127
:108C2C00FFF77AFF2C4AD2F8443193B14FF4A2717A
:108C3C001046FFF769FF294B93F8291009B1012160
:108C4C0011609A692AB100229A61586AD968FFF7B3
:108C5C0099FF05B030BDD5F804335B07D2D5D5F8F4
:108C6C000831002BCED01D4C1B482146FFF773FF5B
:108C7C00636AA2699A422346C4D1E269E1684AB1A7
:108C8C002369E3600023606AA261E3616362FFF71A
:108C9C0079FFB7E794F829200AB901226A600E4AD5
:108CAC004FF40170C2F8080300229A61586AEEE78B
:108CBC004FF48E710848FFF727FF51690029B1D096
:108CCC000023029191688DF8003001915361684640
:108CDC00D2E900139847A5E7002000401478002043
:108CEC002DE9F8435A4B047991462C2202FB0432AD
:108CFC00064692F82A200D469846002A40F0A3809A
:108D0C0054490068FFF7DEFE0746002840F09D80BE
:108D1C0029683368481C0BD04FF0A04001228A40D0
:108D2C00C0F8082501F5E0724FF0030C40F822C0A2
:108D3C006868421C1FBF00F5E0724FF0A04C4FF06A
:108D4C00000E4CF822E0AA6995F814C0C3F824254B
:108D5C006A7DBCF1010F4CEA0202C3F86C25C3F822
:108D6C001405C3F80C151DD1AA68511C1FBF02F5C0
:108D7C00E0714FF0A0404FF0000C40F821C0E968C2
:108D8C00481C0BD04FF0A04C01208840CCF80805B3
:108D9C0001F5E0704FF0030E4CF820E0C3F8081515
:108DAC00C3F810252C23634308EB0302C2F804908C
:108DBC002A6948F80320B9F1000F31D04FF48E71B5
:108DCC0030682D7FFFF7A0FE30684FF4A271FFF7DB
:108DDC009BFE3268204BC2F80433120B53B2002BAB
:108DEC00A8BF03F160404FEA53134FEA4511BABFD5
:108DFC001A4802F00F0500F561404FEA8303C9B22F
:108E0C0003F16043B4BF415580F8001303F561438F
:108E1C0002F01F02012101FA02F2C3F880211A604C
:108E2C0033680422C3F800252C2303FB048300229F
:108E3C00C3E9062283F829205A61012283F82A20EB
:108E4C003846BDE8F8830827FAE71127F8E700BF92
:108E5C0014780020B18B02008000020014ED00E0B9
:108E6C002DE9F047214F06794FF02C0909FB0674C8
:108E7C0080466569002D37D16261A16025624FF48F
:108E8C008E71006884F82850FFF73EFED8F8000079
:108E9C00012383602146FFF73FFE6368A14693B927
:108EAC00D8F800A0226A63699A4212D3D8F800302D
:108EBC00D3F81C21002AFBD00122DA602C2303FBFF
:108ECC000676002373612846BDE8F08794F82830B5
:108EDC0043B9DAF81C31002BF8D049465046FFF75D
:108EEC001BFEDFE70F25E9E71125ECE714780020DE
:108EFC000379044A2C2101FB03235869003018BF65
:108F0C0001207047147800202DE9F843394E05797B
:108F1C002C2303FB056307465C6824B103684FF4FC
:108F2C000170C3F808032C2303FB0563986950B147
:108F3C00D86900283ED024B13B684FF40172C3F8C5
:108F4C000423112433E09A61D9605862D8612C2330
:108F5C0003FB056393F829301BB910B93846FFF7AA
:108F6C00EAFD4FF02C0909FB05683868D8F8043085
:108F7C00002B34D14FF4A271FFF7C6FDC1463868FF
:108F8C00D0F82431D0F80821D0F84441B2B90CB94A
:108F9C00002BF4D02C2202FB05650022AA6123BB16
:108FAC002CBB95F829103B680122B1B11A60204600
:108FBC00BDE8F8831961DA610120C8E7002BE9D11B
:108FCC00002CE7D14946FFF7C6FDD8F82430D8F875
:108FDC0018209A42D3D82346DCE75A60E7E74FF4CF
:108FEC000173C0F804330024E1E70324DFE70F2406
:108FFC00DDE700BF147800200023435082B04358B3
:10900C000193019B02B070471FB501238DF800300E
:10901C00054B8DF8080001916846D3E90012904782
:10902C0005B05DF804FB00BF407800207FB5384ADE
:10903C00D2F82461002E49D010464FF49271FFF7FC
:10904C00DBFF02238DF80030D2F88034C2F8803474
:10905C000393D2F83C358DF808302E4BDA68019228
:10906C000022C3E906226846D3E900129047284A39
:10907C00D2F8443173B14FF4A2711046FFF7BCFF24
:10908C00244B996931B100219961D2F83C05D9681A
:10909C00FFF7BAFF1E4AD2F82031ABB14FF49071F2
:1090AC001046FFF7A9FF1B4B596969B1D2F84C1553
:1090BC008DF80810002299688DF8002001915A61F2
:1090CC006846D3E90012904704B070BDD2F8103155
:1090DC00002BCCD04FF488711046FFF78DFF0D4B51
:1090EC00D2F83C0599698842C1D1DC69D96864B170
:1090FC00D2F8005225F02005C2F800521A699C6182
:10910C00DA60DE61FFF780FFB1E79C61FAE700BF30
:10911C0000200040407800202DE9F8435E4B067992
:10912C009146242202FB0632044692F820200D467A
:10913C009846002A40F0AB8058490068FFF7C2FC03
:10914C000746002840F0A58029682368481C0BD0EE
:10915C004FF0A04001228A40C0F8082501F5E072CA
:10916C004FF0030C40F822C06868421C1FBF00F58A
:10917C00E0724FF0A04C4FF0000E4CF822E0AA69C0
:10918C0095F814C0C3F824256A7DBCF1010F4CEA94
:10919C000202C3F86C25C3F80C15C3F814051DD1D5
:1091AC00AA68511C1FBF02F5E0714FF0A0404FF0B0
:1091BC00000C40F821C0E968481C0BD04FF0A04CC3
:1091CC0001208840CCF8080501F5E0704FF0030E43
:1091DC004CF820E0C3F80815C3F81025242373437A
:1091EC0008EB0302C2F804902A6948F80320B9F18D
:1091FC00000F3BD04FF4887120682D7FFFF7FCFEE9
:10920C004FF490712068FFF7F7FE4FF492712068CD
:10921C00FFF7F2FE20684FF4A271FFF7EDFE226813
:10922C001F4BC2F80433120B53B2002BA8BF03F12F
:10923C0060404FEA53134FEA4511BABF194802F088
:10924C000F0500F561404FEA8303C9B203F1604397
:10925C00B4BF415580F8001303F5614302F01F02BF
:10926C00012101FA02F2C3F880211A602368082256
:10927C00C3F80025242303FB06830022C3E906223E
:10928C005A61012283F820203846BDE8F88308276C
:10929C00FAE71127F8E700BF407800203990020068
:1092AC001003020014ED00E001F06043B3F1005F25
:1092BC002DE9F041074632D11B4B0679242505FBDD
:1092CC00063598466C6964BB6A61A96000684FF406
:1092DC009071FFF791FE4FF4AC713868FFF78CFE7C
:1092EC003B686A69A968C3F84415C3F8482501228C
:1092FC009A606A6862B9D3F82021D3F8584152B900
:10930C00002CF8D00F24242303FB06860023736162
:10931C002046BDE8F081002C18BF0F24F3E7102481
:10932C00F6E71124F4E700BF407800200379044AE3
:10933C00242101FB03235869003018BF012070471A
:10934C0040780020F8B501F06043B3F1005F0446AB
:10935C000F465ED10379304D242101FB035148683F
:10936C0020B121684FF40476C1F80863242101FB75
:10937C0003539E6956B1D969002939D020B12368AD
:10938C004FF40472C3F80423112030E09A61DF60BB
:10939C00DE614FF488712068FFF72EFE4FF4A27146
:1093AC002068FFF729FE2368C3F83475C3F8382505
:1093BC0016BB01221A602179242202FB0152526849
:1093CC000ABBD3F81041D3F84421D3F82401144339
:1093DC0002D10028F5D02246242303FB015500239B
:1093EC00984218BF03209A42AB6118BF0F20F8BDFA
:1093FC001F61DA610126CCE7D3F8002242F020028B
:10940C00C3F80022D7E74FF40472C3F804230020FA
:10941C00EDE71020EBE700BF40780020032813D8BD
:10942C00012A0BD1012908D100F10E02D2B200EBB6
:10943C0040000C4B1A540020704700220129F6D032
:10944C004BB24BB1022901D007207047054B00EB02
:10945C00400018444270EEE7024900EB400008441B
:10946C008270E8E76478002008B501220221002010
:10947C00FFF7D4FF08B1072810D1072202210120E1
:10948C00FFF7CCFF08B1072808D100210A220846B3
:10949C00FFF7C4FF10B1072808BF002008BD00006B
:1094AC000388102B10B502D0112B1ED010BD1A4CF6
:1094BC002168B1B901220846FFF7B0FF08B10728AF
:1094CC0024D1072202210120FFF7A8FF08B10728A9
:1094DC001CD1042202210020FFF7A0FF08B10728AD
:1094EC0014D1236801332360E0E70B4A1368013B76
:1094FC001360002BDAD1FFF7B7FF0028D6D0074B4B
:10950C001B68002BD2D0BDE810401847034B1B68DA
:10951C00002BE6D09847E4E77478002070780020A0
:10952C0072DF704773DF704774DF704775DF704709
:10953C0076DF704777DF70477ADF70477CDF7047E4
:10954C0088DF70478ADF70478BDF70478CDF70478E
:10955C008FDF704741DF704770B54C680D88002372
:10956C009D4201D805200AE0E618E15C7678864237
:10957C0006D102332344013953601180002070BDA1
:10958C0001310B44ECE70378022B02D14068FDF764
:10959C004FBD012BFAD07047FDF74ABD02F09AB8C7
:1095AC0008B51648164B1749C01AC008000440F0FD
:1095BC000300FDF727FA144B01211878FFF7B2FFCF
:1095CC0008B1FDF735FD00224FF480410F48FDF73F
:1095DC00C9FF08B1FDF72CFD002241F69A110C4889
:1095EC00FDF7C0FF08B1FDF723FD00224FF4004149
:1095FC000848BDE80840FDF7B5BF00BFD0EB02003E
:10960C00A8EB02006CF30200B0800020B4800020B4
:10961C00D4800020948100200120FEF783BF00201D
:10962C00FEF780BF42880D4B10B50146044614204E
:10963C0000FB023004F092F86288094B2C2000FBEE
:10964C000230214603F094FD6288064B242021460B
:10965C0000FB0230BDE8104002F002BAB4810020D9
:10966C00B48400209483002008B503784BB9054BD3
:10967C003B211888FFF75CFF18B1BDE80840FDF7E7
:10968C00D7BC08BDBC6F00200378A3B90A4B1A687D
:10969C003AB9816811F8012B1A608289074804F0E5
:1096AC0091BD0748074B0849C01AC008000440F098
:1096BC000200FDF7A7B97047347900201479002017
:1096CC00D0EB0200A8EB020082F3020038B50A4C82
:1096DC002268904205460DD00848FDF789FF01200D
:1096EC00FEF704FF2DB1002240F6CD410348FDF7F3
:1096FC0039FF256038BD00BF3C7900207483002001
:10970C0008B5134B1B780BB312481349FF238B80FE
:10971C00038803F0FE0343F480730380FFF712FF0A
:10972C0008280ED10D480E4B0E49C01AC008000473
:10973C0040F00300FDF766F90120BDE80840FFF793
:10974C00C5BF0028F8D0FDF773FCF5E708BD00BFD6
:10975C00D66F0020C86F0020C06F0020D0EB020035
:10976C00A8EB02005AF7020073B50D78012D0646DE
:10977C000C4603D0022D23D002B070BD1D4B1E48E9
:10978C004A881E49C01AC008000440F00300FDF7C7
:10979C003DF9FDF737FC08B1FDF74AFC304604F003
:1097AC00B3F808B1FDF744FC154A60884FF04873D4
:1097BC006946CDE90023FFF7B9FEFFF7A1FFDBE710
:1097CC000C4B0D484A88C01AC00800040B790D498F
:1097DC0040F00300FDF723F92379284633B1FEF757
:1097EC0079FE2179608801F0AFFEC5E7FEF77EFEB9
:1097FC00F7E700BFA8EB0200D0EB02002EF6020048
:10980C005000A00060F602000FB410B5C2B044AB1B
:10981C004FF4807153F8042B019302A804F0C4FC9C
:10982C0002AC14F8010B20B942B0BDE8104004B0F2
:10983C007047FEF78DFCF4E710B50E4C0E4888B05F
:10984C00FFF7E2FF2078FFF76FFE20220021684629
:10985C0004F0E1FC094B1868094B1B68142269469B
:10986C00184404F0AFFC01212078FFF75BFE08B030
:10987C0010BD00BFB08000204AF90200D47800204F
:10988C00148600202DE9F04FB14B97B006AA03F1D6
:10989C001006154618685968144603C40833B342B9
:1098AC002246F7D11B88AB4F23802E2200210DF1CD
:1098BC002A0004F0B0FC3B78002B00F0BE80A649D7
:1098CC00A64B0A781B78A64E9CB293421BB28846D4
:1098DC0006EBC30021460DD37F291AD9A0494FF0BE
:1098EC00000E1FFA82FC1FFA8EF294451ED806EB6E
:1098FC00C30371E01FFA82FC8C4502D806EBC3034C
:10990C0022E082880AB1013A8280013189B20830A2
:10991C00F2E7B0F804C0BCF1000F03D00CF1FF3C2F
:10992C00A0F804C0013189B20830D5E7888808B1A5
:10993C00013888800EF1010E0831D4E79A88611C39
:10994C0089B208331AB10C46A445F7D875D0224613
:10995C00844903A804F0BEFB03A9284604F0CFFBFE
:10996C0004F101097F4B1FFA89F94FF0010A98F8AD
:10997C0000204A4507D83B7888F80040A3EB0A0A38
:10998C0087F800A052E006EBC9029188C9B192E8B1
:10999C00030004F1010B06EBC40484E803004A46FF
:1099AC00194603A804F096FB03A928461FFA8BFB63
:1099BC0004F0A5FB6B4B5C4609F101091FFA89F910
:1099CC00D5E70AF1010A1FFA8AFAF5E79988621CB1
:1099DC0092B2083329B114467F2CF7D9802C00F0B1
:1099EC00AF8022465F4903A804F074FB03A9284604
:1099FC0004F085FB04F1010A5A4B1FFA8AFA4FF066
:109A0C0001091FFA8AF27F2A1AD9DFF854A14FF004
:109A1C00000B98F800201FFA8BF39A4231D83B7850
:109A2C0088F80040A3EB090987F800904E492846B6
:109A3C0004F065FB2846FFF7E7FE17B0BDE8F08F92
:109A4C0006EBCA029188B9B192E8030004F1010B4C
:109A5C0006EBC40484E803005246194603A804F03C
:109A6C0039FB03A928461FFA8BFB04F048FB3D4B3E
:109A7C005C460AF1010AC4E709F101091FFA89F9E8
:109A8C00F7E7BAF80430DBB19AE80300631C06EB85
:109A9C00C4049BB284E803005A463249019303A8DC
:109AAC0004F018FB03A9284604F029FB019B1C4673
:109ABC00802C28BF00240BF1010B0AF1080AA8E73F
:109ACC0009F101091FFA89F9F2E7B188531C29B190
:109ADC001A4694B26445F8D3A445AED0214903A8E4
:109AEC0004F0F8FA03A9284604F009FB04F1010973
:109AFC001C4B1FFA89F94FF0010A98F800204A45CF
:109B0C007FF639AF06EBC9029188D9B192E8030010
:109B1C0004F1010B06EBC40484E803004A46194621
:109B2C0003A804F0D7FA03A928461FFA8BFB04F00C
:109B3C00E6FA0C4B5C4609F101091FFA89F9DCE7DE
:109B4C000022C6E70AF1010A1FFA8AFAF3E700BFFE
:109B5C0004F30200427D0020417D0020407D002066
:109B6C00407900200BF602000CF50200F0B50B78E2
:109B7C004D88013B87B006460C46052B3ED8DFE8E6
:109B8C0003F003243F5969753D4B24200A1D00FB4B
:109B9C000530294602F012F93A486188FFF734FE85
:109BAC00304602F0E1F808B1FDF742FA304602F017
:109BBC00E9F808B1FDF73CFA304602F0F1F8E8B1EB
:109BCC0007B0BDE8F040FDF733BA2F4B91F90460B4
:109BDC004F798DF81060282202FB05358DF8117035
:109BEC000499284602F006F995E807008DE807006D
:109BFC003B46324661882548FFF706FE07B0F0BDAC
:109C0C000B1D93E8030004AA82E80300247A1E4B80
:109C1C008DF814400646282000FB053006CA02F0D9
:109C2C000FF91B4823463246294607B0BDE8F040E1
:109C3C00FFF7EABD0C79144B2820214600FB0530B8
:109C4C0002F028F913482246294607B0BDE8F04037
:109C5C00FFF7DABDCD8810488988FFF7D5FD0F488E
:109C6C00294607B0BDE8F040FFF7CEBD4B89009305
:109C7C000B89CA880A488988FFF7C6FDBEE700BF72
:109C8C009483002066F90200487D0020A1F90200AF
:109C9C00CEF90200F0F902000FFA02001EFA0200DF
:109CAC003CFA020030B5194B1B78EBB1184B194C30
:109CBC001A78194B197893B28A4212B204EBC20289
:109CCC000FD37F2B1AD9002289B293B299420BD9A8
:109CDC00013204EBC20555F8085C8542F5D11846F3
:109CEC0030BD89B2994202D84FF6FF73F7E752F8AC
:109CFC00084B8442F3D001339BB2F3E752F8085B74
:109D0C008542ECD001339BB2DBE700BF427D0020E3
:109D1C00407D002040790020417D002037B505466C
:109D2C00FFF7C0FF4FF6FF73984229D1154A164929
:109D3C001378164C41F8335001EBC3010A2088808C
:109D4C002078134901338028DBB208D0802B00D156
:109D5C000023137003065CBF0130207005E0802BDC
:109D6C0008BF0023137013780B70237800930B78C3
:109D7C00084812782946FFF747FD207803B030BD1C
:109D8C001846FBE7417D002040790020427D0020F1
:109D9C00407D0020A6F702002DE9F04F484B85B01E
:109DAC001F880390002F00F08880464D5868298842
:109DBC00DFF81CE14A0192B28418012F66790196F2
:109DCC00A679029694F807B002F1020602F101049A
:109DDC0021D1002787545A68FF2090555A68105596
:109DEC00394A2F801780AEF800701F80344B354AEB
:109DFC001B8812883548FFF707FD039B002B5CD0AE
:109E0C00029B1802019B00EB0340584405B0BDE8CF
:109E1C00F04FFFF783BFBEF800708F421AD14FF09E
:109E2C00000810F804C000F802805A68FF20905512
:109E3C005A68105502221FFA8CF75B6802EB4C1C17
:109E4C0003F80C00AEF800702F801D4A1388013BFC
:109E5C001380CBE7DFF8709010F80680B9F800A0FB
:109E6C004FF0200C01278A451CFB08774FF0000AA5
:109E7C000ED100F802A05A68FF2090555A68105570
:109E8C005B68D855BEF80030A9F800802B80DCE761
:109E9C0010F804E000F802A05A68FF2090555A68A8
:109EAC00105502221CFB0E2C5A6802F80C805B68C1
:109EBC0003F807E0A5F800E0C7E705B0BDE8F08FB0
:109ECC0040590020887E00208C7E002090F80200F3
:109EDC008A7E00202DE9F84F414B424FD3F800B059
:109EEC00414E99463D463B880BB9BDE8F88FB6F814
:109EFC000080D7F804C04FEA48140CEB040318791F
:109F0C0038B9FFF749FF3B88002BECD1FFF794FCE5
:109F1C00E9E793F804A0354B354F83F800A0FF22F6
:109F2C00611D61445A70981C0AF1FF3204F04AF921
:109F3C002E4B38685A7901325A7119460AF10102CE
:109F4C0050FA8BF004F03EF9D9F800102948DFF8EC
:109F5C00C0900131514489B24246B980FFF754FC9C
:109F6C004FF00008BB8843451FDC2348FFF74CFC2F
:109F7C00E31C6A68D45C013CE4B2D454F4B901200B
:109F8C00FFF70AFF31881D481D4EFFF73DFC6B683B
:109F9C003046195D2034FFF737FCB4F5007FF6D15D
:109FAC001548BDE8F84FFFF72FBC3B68484613F83F
:109FBC000810FFF729FC08F10108D3E7114B328890
:109FCC001B881148934215BF6B68104B03EB42136F
:109FDC00198818BF59783180BDE8F84FFFF714BCC9
:109FEC001486002040590020887E002048860020DE
:109FFC00D4780020E3F802000CF5020006F9020008
:10A00C000BF602008C7E00202AF902008A7E0020CA
:10A01C0055F70200F8B544780378240204EB0344A6
:10A02C0083781C442046FFF73DFE4FF6FF739842A1
:10A03C00054607D000211348FFF7E6FB4FF4FA550D
:10A04C002846F8BD104F3B88002BF9D00F4B104819
:10A05C001E88FFF7D9FB00210E48FFF7D5FB796866
:10A06C0073010533CA18C95C537892781B0203EB51
:10A07C00014313449C42E3D100210748FFF7C4FB82
:10A08C003546DDE75DFA0200405900208A7E00204B
:10A09C007DFA020097FA02009EFA020038B5436876
:10A0AC005C781A789B78240204EB02441C44054625
:10A0BC0021460B48FFF7A8FB6868FFF7ABFF4FF68C
:10A0CC00FF73984207D1284601F0EEFB2046BDE80D
:10A0DC003840FFF723BE0348BDE83840FFF794BB78
:10A0EC00C2F80200CEF8020043681878A0F10A0307
:10A0FC0058425841704743685878A0F10A035842B7
:10A10C00584170472DE9F3473B4CB4F800A0BAF125
:10A11C000F0F064608D86168002358010F5C002F0A
:10A12C004DD00133102BF8D13448FFF76DFB0127CC
:10A13C0041E04FF0FF0A01F80CA0636803F80EA091
:10A14C00A8F800202A80A9F800206368FF221A547E
:10A15C00636803440222DA70636832780344013284
:10A16C001A716368328871680530184404F02AF853
:10A17C002388234801339BB200932380B9F8002035
:10A18C00B8F800102B88DFF88490FFF73DFB4FF0F8
:10A19C0000082A88636803EB4213484613F808103A
:10A1AC00FFF732FB338808F1010805334345F0D83B
:10A1BC001448FFF729FB384602B0BDE8F08700F1E0
:10A1CC00020C00F1010E9AB2DFF844800E4DDFF85C
:10A1DC004490BAF1000FACD0B5F800A001EB4A11D5
:10A1EC004B706368298803F80C106368FF2103F82F
:10A1FC000E102A80A9E700BF4059002020F8020069
:10A20C002CF802000CF502008C7E00200BF60200EC
:10A21C008A7E0020887E002030B591B02A4A08AB97
:10A22C00029340F60A23ADF8203013788DF82230D3
:10A23C00591C117043780288002152BA062B8DF8F4
:10A24C002310ADF8242010D0072B23D0052B0ED1D2
:10A25C0041F21223ADF826301C4B0A934FF4F04315
:10A26C00ADF82C308DF82E100F23ADF804301848B3
:10A27C00184DFFF7C9FA0023BDF804205C1CDBB2B3
:10A28C00934216D31448FFF7BFFA01A8FFF73AFF21
:10A29C0011B030BD83885BBAADF8263083681BBA29
:10A2AC000A9383895BBAADF82C3083788DF82E3005
:10A2BC00DAE7029A2946D25C03A803F00BFF03A845
:10A2CC00FFF7A2FA2346D7E7447D002000010203E2
:10A2DC0073F802000BF6020094F302002DE9F04F24
:10A2EC001E4D1F4CDFF87C80DFF87C9085B000267B
:10A2FC004FF6FF772B88BB4225D0204601F06EFD30
:10A30C008346204601F091FD8246204601F0B4FDC3
:10A31C0098F80030BBB92A8894F824308DF80020C6
:10A32C00ADF80C00072268468DF801208DF802303C
:10A33C00ADF804B0CDF808A0FFF76EFF32462988BF
:10A34C004846FFF761FA0136082E05F1240504F1A1
:10A35C002804CFD105B0BDE8F08F00BF9483002056
:10A36C00487D0020437D0020DFF7020030B50B78DC
:10A37C00012B85B005460C4603D0022B24D005B02A
:10A38C0030BD224B22484A882249C01AC00800041A
:10A39C0040F00300FCF73AFB284602F0BFFF08B17F
:10A3AC00FCF746FEFF231A461946284603F018F818
:10A3BC00194A60884FF048736946CDE90023FFF7CE
:10A3CC00B5F8FFF79DF9DAE7144B48881B78097943
:10A3DC00C3B9134C8DF8000028234343E218E35A09
:10A3EC00ADF804300720D3688DF80100029382F891
:10A3FC002410138B8DF802106846ADF80C30FFF763
:10A40C000BFFBCE701F0A0F8B9E700BFA8EB020016
:10A41C00D0EB020073F702005000A000437D002037
:10A42C00487D00202DE9F043A0F10D038BB00C46C4
:10A43C00032B00F28980DFE803F002102D0D444C51
:10A44C00237823B1FFF7F8F90023237002E0404B87
:10A45C0001221A700BB0BDE8F0830129FAD13D4AF4
:10A46C00137883F00103137013B1FFF749F9F1E787
:10A47C00FFF76AF8024648B13748384B38491B1A7F
:10A48C00DB081B0443F00100FCF7C0FA0020FFF7C7
:10A49C001DF9DFE7334EDFF8EC9000254FF02C0868
:10A4AC0043F202072146304603F05AFA80B90135CF
:10A4BC00082D06F11406F5D1274B28482A49C01A55
:10A4CC00C0080004224640F00300FCF79FFA0BE0A2
:10A4DC00211C18BF012108FB059002F097FF30F0FA
:10A4EC000803E4D0B842E2D0194C2378002BAED04C
:10A4FC001E4D1F48FFF788F92878FFF715F801461D
:10A50C001C48FFF781F91C4A1C4BCDE9022303F1CF
:10A51C00042303F58023049303F10433059303F11F
:10A52C00043306930DF10A03019368461223ADF828
:10A53C000030FFF7E7FD01212878FEF7F3FF014615
:10A54C000F48FFF761F97FE7FCF772FD82E700BF68
:10A55C0048590020D66F0020A8EB0200D0EB020077
:10A56C00C5F50200B481002017F60200B08000206F
:10A57C00ECF5020007F6020013FF0A0A03000102C1
:10A58C000FF60200B48400202DE9F043064691B08A
:10A59C0036F8043B1F2B044600F0438300F2B280D4
:10A5AC001B2B00F0DF8208D8102B00F0D780112B6A
:10A5BC0000F0C08111B0BDE8F0831C2B00F041838A
:10A5CC001D2BF7D1A84E3368002B40F0C782036ACD
:10A5DC00059306AA838CADF8103004A90920FEF768
:10A5EC00BBFF002840F01382A04803F069FE70B353
:10A5FC009E48079D03F064FE294602469B4803F0E3
:10A60C002EFD8046002840F01F829848BDF8185057
:10A61C0003F056FE854218D99448079D944F03F0D9
:10A62C004FFE05449148BDF8189003F049FE2946A9
:10A63C00A9EB0002384603F0C5FD8C48BDF8185054
:10A64C0003F03EFE281A07F8008001233360002730
:10A65C000025884B0CAA03F1100E90461868596817
:10A66C009446ACE80300083373456246F6D194F97E
:10A67C001B300933C0F26782002D00F0648208AAF7
:10A68C0004A90620FEF768FF002840F05C824146D2
:10A69C001022099803F0E3FC8046002840F0538216
:10A6AC007548764B724D76491B1ADB081B0443F038
:10A6BC000300FCF7A7F9BDF818200799284603F00A
:10A6CC0081FDBDF8183005F8038002233360002F9C
:10A6DC0040F0A5816B496C4A4B78B36004F10A00D9
:10A6EC000123FEF733FF0246002800F098816248F0
:10A6FC00624B66491B1ADB081B0443F00100FCF794
:10A70C0085F98CE1262B00F081821DD8212B00F0DD
:10A71C009082222B7FF44EAF037A002B7FF44AAF4A
:10A72C00457A867A544B55485949C01AC0080004DA
:10A73C002A46334640F00300FCF771F932462946AD
:10A74C00A08800F057FF35E73B2B02D0562B7FF447
:10A75C0031AF1321A088FEF7EBFE66E2464B474D66
:10A76C008288ED1AC37BED082D04022B45F00305FE
:10A77C0040F0CF80474F4FF0060808FB02F2BB18A1
:10A78C0028465979039119790291D97801919978D0
:10A79C0000915B78BA5C4049FCF757F9A2883F49B5
:10A7AC002846FCF733F9A08808FB00702E4F04F103
:10A7BC000901424603F006FD3B68A188012B46D0F7
:10A7CC00022B77D0A088364BDFF8E48018804FF44A
:10A7DC0033752A46002105FB008003F01CFDA1887F
:10A7EC0005FB018002F0B6F8112802D008B1FCF785
:10A7FC001FFC04220521A088FEF7A2FE08B1FCF77D
:10A80C0017FC0422A1880320FEF794FE08B1FCF784
:10A81C000FFC1549304600F0B5FD01F0DFFE0828AD
:10A82C0002D10120FDF762FE00233B60154B5B78E3
:10A83C00042B7FF4BFAE1B4A137801331370A3882B
:10A84C00194A22F813300320FDF744FEB2E6174BE9
:10A85C001420002200FB013003F002F90028B1D0D3
:10A86C00FCF7E6FBAEE700BFB06F0020B7F60200C6
:10A87C002281002044F30200A8EB0200D0EB02007E
:10A88C0022F50200C86F00209CF6020031F5020090
:10A89C00B1F502001886002097F30200BBF302000A
:10A8AC00D86F00203879002010810020B48100205E
:10A8BC004E590020B44B2C2000FB0130002202F03A
:10A8CC00C3FD2846B149FCF79DF8A188B04B242064
:10A8DC00002200FB013001F071FA054608B1FCF7CB
:10A8EC00A7FBAC4B1B787BB9A2888DF830200CA849
:10A8FC0005228DF831208DF83230ADF834300E93BE
:10A90C00ADF83C30FFF788FC002D3FF45BAF2846D8
:10A91C00A6E7A14BA1491A802846FCF777F800223C
:10A92C004FF480319E48FCF71DFE9E48FCF760FEFC
:10A93C00002089E79C4B9D4D9D49974FED1A8388CC
:10A94C0006225A438B18ED08587903901879029017
:10A95C00D8780190987800902D0445F003055B7829
:10A96C008A5C94492846FCF770F8A28892492846DC
:10A97C00FCF74CF83B88A2889342237A34D08F4959
:10A98C002846FCF74CF88E4BA1881A88914208BFD8
:10A99C004FF6FF72304608BF1A8000F085FDA28882
:10A9AC00884B33F812004FF6FF7188420AD023F817
:10A9BC001210854A1378013BDBB2137013B90320D4
:10A9CC00FDF794FD8148FEF71FFF724B1B7843B9CE
:10A9DC00A3888DF830300CA806238DF83130FFF7A2
:10A9EC001BFCFEF78DFEE5E51A4679492846FCF777
:10A9FC000DF84FF6FF733B8000F062FE6848FCF7E1
:10AA0C00F7FD0020FDF772FDFEF7CAFDD2E506AAA0
:10AA1C0004A90820FEF7A0FD00283FF4E5AD30683E
:10AA2C00002840F09B806B49FEF78CFD082840F015
:10AA3C008F805D4B5D486849C01AC008000440F027
:10AA4C000100FBF7DFFFB5E56448079D03F038FC18
:10AA5C0029460246614803F002FB00286ED060488C
:10AA6C00079D03F02DFC294602465D4803F0F7FADA
:10AA7C0000287FF4ECADFCF7CBFD01465948FEF7FE
:10AA8C00C3FE0AAA04A9FF20FEF766FD05460028AE
:10AA9C0057D194F91B1011F16D0F49DB524F5348EC
:10AAAC00DFF86091DFF86081FEF7AEFE3D70BDF817
:10AABC0028309D4213D34E494B4803F020FB4A48A3
:10AACC00FEF7A2FE0AA8FFF70FFB074698B149490B
:10AADC00454803F0D3FB4448FEF796FEB8E50B9BC4
:10AAEC0049465A5D404603F0F5FA4146384603F0B4
:10AAFC0006FB0135DBE70AA8FFF7FDFA05468046A1
:10AB0C0060B13D49384803F0B9FB3748FEF77CFE8D
:10AB1C000AA83D46FFF7C2FA47469AE50B98FFF79D
:10AB2C0079FA4FF6FF73984204D10AA8FFF7EAFAB4
:10AB3C0001278EE53148FEF767FEF9E70746012548
:10AB4C0087E5012784E53368002B3FF468AFBEE549
:10AB5C0000283FF42FADFCF76BFA2BE50020FEF735
:10AB6C00B5FD27E5037A022B0AD10F4B0F48244978
:10AB7C00C01AC008000440F00300FBF743FF30E7A5
:10AB8C00012B7FF417AD2CE7B4840020F0F3020006
:10AB9C0094830020437D0020BC6F0020FBF3020057
:10ABAC0054820020B4800020A8EB0200D0EB0200FD
:10ABBC001886002097F3020023F402003AF40200F6
:10ABCC00D86F002010810020387900206CF402002E
:10ABDC0082F40200C06F002056F50200B0F60200AD
:10ABEC00B4F40200B7F40200DD860020D4F40200B5
:10ABFC000CF50200EFF40200FFF402000FF5020066
:10AC0C0071F502000BF60200D3860020104B1148A0
:10AC1C001149C01AC008000440F00300FBF7F2FE13
:10AC2C00F2E6311D8088FEF781FC00283FF4C2ACAF
:10AC3C0091E700230CA98088ADF83030FEF788FC32
:10AC4C00F3E790F90810808800F0C4FCB2E400BF70
:10AC5C00A8EB0200D0EB02008FF50200F8B50D4D09
:10AC6C000D4F0024142606FB04F34FF6FF725B5BBA
:10AC7C00934208D013211846FEF75AFC0134082CD5
:10AC8C00F1D10020F8BD2C226243D05B9842F5D064
:10AC9C001321F1E7B4810020B48400202DE9F04F9A
:10ACAC008FB00A22A94902A803F014FA02A9A848F5
:10ACBC0003F025FAA74BA84A1B881380A74AA8487B
:10ACCC0013800024A74B4FF4007221461C8003F024
:10ACDC00A2FA4FF480622146A34803F09CFAA34BDE
:10ACEC00A3481C70A34B1C70A34B4FF4A0722146BD
:10ACFC001C7003F090FAA14B01224FF40041204646
:10AD0C001A70FBF7BBFC08B1FCF792F9FBF7ECFBF4
:10AD1C00FCF7E6FB08B1FCF78BF9994A994801213D
:10AD2C00FCF70EFC08B1FCF783F9974A9748012110
:10AD3C00FCF706FC08B1FCF77BF9954A9548964D53
:10AD4C000021FCF7FDFB954A95480121FCF7F8FB27
:10AD5C00944A95480121FCF7F3FB944A944801214D
:10AD6C00FCF7EEFB0FCD07AC0FC4924B039395E8A9
:10AD7C00030010230493904B05934FF4806384E8F5
:10AD8C00030006938D4A072303A907A8FDF788F94A
:10AD9C0008B1FCF74DF90120FDF7D6FB40F26662D5
:10ADAC0003218748FCF7DAF808B1FCF741F902F007
:10ADBC00C3FE08B1FCF73CF9002307A90120079357
:10ADCC0002F07CFF08B1FCF733F907A803F04AF84E
:10ADDC0008B1FCF72DF911235D488DF80C3003F008
:10ADEC006FFA5B4982B203A8FEF7A8FB08B1FCF727
:10ADFC001FF90822002107A803F00DFA714A4FF041
:10AE0C007A7307A8CDE90723FEF796FB08B1FCF788
:10AE1C000FF904224FF6FF710220FEF78BFB08B1ED
:10AE2C00FCF706F90021684801F038FF08B1FCF77F
:10AE3C00FFF84021644801F04BFF08B1FCF7F8F82B
:10AE4C000021042207A803F0E6F9604B6048079341
:10AE5C0007A902F069FB08B1FCF7EAF85C4800F0BE
:10AE6C006DFA5C4801F03CFD08B1FCF7E1F85A4E74
:10AE7C005A4B07933546002407A9284602F0DCFC00
:10AE8C0008B1FCF7D5F80134082C05F11405F3D101
:10AE9C00534D544B07932F46002407A9384602F014
:10AEAC00CFF908B1FCF7C4F80134082C07F12C07D2
:10AEBC00F3D14D4B4D4F0793002407A9384600F0B2
:10AECC00ABFE08B1FCF7B4F80134082C07F12407E9
:10AEDC00F3D101F081FB4648464C474921600223DF
:10AEEC0003704FF4C0634380444B01221A82444ADE
:10AEFC005A61444AA2601F23221DA380A38101F042
:10AF0C0009F908B1FCF794F83F4AA1683B4801F0F5
:10AF1C0001F908B1FCF78CF83C4FA1883C4839602A
:10AF2C00FEF772FCA08823683860142200211844B4
:10AF3C0003F071F93B6837481433A380364C002278
:10AF4C006421C4E90121A28168E000BF3EF7020040
:10AF5C00DA6F00208A7E00208C7E0020887E002004
:10AF6C008E7E00204059002040790020417D002039
:10AF7C00487D0020407D0020427D0020437D002044
:10AF8C002B96020094F6020025960200ACF6020005
:10AF9C00A9950200A8F6020054F30200E19E0200FB
:10AFAC0098F6020091980200A4F60200E9A20200B1
:10AFBC0090F60200688600205D87002093950200C1
:10AFCC00285900205000A0004081002095960200D6
:10AFDC00F480002031960200B481002075970200A5
:10AFEC00B484002079A30200799B02009483002092
:10AFFC0078780020D4780020B4780020788600205F
:10B00C004A590020B4860020E078002014860020E5
:10B01C0055F70200FC780020E47800204FF4807291
:10B02C000123A282214618222370A37503F0CAF8CB
:10B03C00224695499548FEF773FA08B1FBF7F8FFDD
:10B04C001C220DEB0200002103F0E5F800234FF465
:10B05C002032CDE90732ADF82A304FF470228DF84A
:10B06C002C308B4B09920C9303228A4B8DF82820A1
:10B07C0007A80D9302F01AF808B1FBF7D9FF864A1E
:10B08C00864B87499B1ADB081B0443F003031846C5
:10B09C000093FBF7B7FC83498348FEF7B5FB834964
:10B0AC008348FEF7B1FB834A00234FF6FF7101334F
:10B0BC00092B22F8021BFAD1FEF722FB00224FF4D7
:10B0CC00A0217D48FCF74EFA08B1FBF7B1FFFEF763
:10B0DC0067FAFBF797FF08B1FBF7AAFF774F784B9E
:10B0EC001A884FF6FF739A4210D13B68002B5ED042
:10B0FC003A6874490098FBF789FC3B68013B042BC8
:10B10C0053D8DFE803F02C0894B7BA0000F08AFAA1
:10B11C000028FBD1E9E76C4B93F80280DA781C78B5
:10B12C0048EA022293F80180003448EA022818BF4A
:10B13C0001244146204600F01FFA4FF000094FF061
:10B14C00140A4FF02C0B012303FA09F212EA080F30
:10B15C0059D109F10109B9F1080FF4D125E05A4B85
:10B16C0099795A7993F8019093F802A093F803B067
:10B17C0093F800808DF81C9042EA012219798DF821
:10B18C001DA041EA02220192134651465A464846F6
:10B19C008DF81EB000F008FA00240123019AA34098
:10B1AC00134211D10134082CF7D100233B6000F07D
:10B1BC00FBFAFBF7BDFA0028FBD1FEF7CBF9002810
:10B1CC008DD0FBF735FF8AE7142007A900FB04603C
:10B1DC0002F0F2FB0028E5D02C2000FB0450B8F163
:10B1EC00000F0CD142464146434602F0F9F830F0CC
:10B1FC000803D7D043F202039842D6D1D2E7524685
:10B20C0049465B46F1E721460AFB096002F0A8FBC0
:10B21C0000289ED021460BFB095002F0F7F830F0C5
:10B22C00080396D043F202029042BED191E7264B1E
:10B23C0093F800902C464FF000084FF0140A0AFBCC
:10B24C0008F3224AD35A4B4503D10121204602F080
:10B25C00DDF823884B4505D1FF231A4619462046B5
:10B26C0002F0BEF808F10108B8F1080F04F12C0443
:10B27C00E5D19AE7FFF7F2FC97E7114B13211888F9
:10B28C00FEF756F991E700BFD4780020B08000207B
:10B29C0075960200A5950200A8EB0200D0EB020007
:10B2AC00BBF60200DA6F0020D5F60200B0F6020001
:10B2BC0003F70200108100209080002034790020D8
:10B2CC00BC6F002032F7020014790020B4810020FA
:10B2DC0010B5084A00231A2101FB03F4A45A844236
:10B2EC0001D198B210BD0133142BF5D14FF6FF707C
:10B2FC00F8E700BF88930020402838B5024613D8E1
:10B30C000A4D0B492B68096803F14004C4F30A0485
:10B31C008C4209D007480849C2540133184402F042
:10B32C0051FF2C60012038BD0020FCE76093002009
:10B33C00649300205D8B0020D19500200D4B0E4AAC
:10B34C0010B518601A2400234FF6FF7004FB03F1AC
:10B35C000133142B8852F9D10849094802F08EFFA9
:10B36C00074A04232021995401330F2BFBD10023CE
:10B37C00D37310BD7093002088930020DEFA020076
:10B38C00749300202DE9F843B0F800900746484626
:10B39C000D46FFF79DFF4FF6FF739842044671D19F
:10B3AC00FFF796FFA042064666D0DFF8F8801A2415
:10B3BC0004FB00F208EB020328F802902A689A704A
:10B3CC000022DA704FF601729A80FF229A71DA71BC
:10B3DC00686802F075FF0F2848D8686802F070FFA3
:10B3EC00814604FB06840A344A466968204602F00A
:10B3FC00E9FE484620230E283BDD1A2303FB068674
:10B40C0000233376AA687372224B327201221A70AF
:10B41C00214C224E012121703B881B0A63703B8812
:10B42C00A3702B68E3700022FF2322716171A3715A
:10B43C00E37123726272AB68A372686802F040FF1A
:10B44C000F2824D86F68384602F03AFF3946024676
:10B45C0004F10B0002F0B6FE686802F031FF0B300D
:10B46C0030803088BDE8F843FFF746BF4FF00F0936
:10B47C00B7E723540130BEE7094A136843F00403CD
:10B48C001360C5E7064A136843F00203F8E70B2381
:10B49C003380E6E7EE6F0020D19500201296002055
:10B4AC00849300208893002010B504460088FFF791
:10B4BC000FFF4FF6FF72904215D01A2343430D49EC
:10B4CC00CA520D4B01221A700C4B02221A702288A0
:10B4DC00120A5A7022889A70094B0320BDE810405A
:10B4EC001880FFF709BF074A136843F0080313607D
:10B4FC00EAE700BF88930020EE6F0020D195002072
:10B50C00129600208493002010B41A220B4C0C4B82
:10B51C00504322180321205A1970D970D17819710F
:10B52C00040A117A527A5C70987059719A71054BB1
:10B53C005DF8044B07201880FFF7DEBE88930020CF
:10B54C00D19500201296002010B50C46FFF7C0FED6
:10B55C004FF6FF72904209D0054A1A2101FB0023D5
:10B56C00DC70FFF7D1FF034B01221A7010BD00BF36
:10B57C0088930020EE6F002070B5094B094E002413
:10B58C0001251A881F2A05D805FA02F20A421CBFA7
:10B59C00187135700134142C03F11A03F1D170BDFC
:10B5AC0088930020EE6F0020F0B5094C002601278F
:10B5BC0025881F2D06D807FA05F51D421EBF6071A0
:10B5CC00A171E2710136142E04F11A04F0D1F0BD10
:10B5DC008893002010B50C46FFF77AFE4FF6FF73E8
:10B5EC0098421FBF024B1A2202FB0030447210BD5E
:10B5FC008893002010B50C46FFF76AFE4FF6FF72D9
:10B60C00904209D0054A1A2101FB00231C72FFF756
:10B61C007BFF034B01221A7010BD00BF88930020E2
:10B62C00EE6F00202DE9F0411D4D2C7854BB1D48C8
:10B63C001D490368096803F140028B42C2F30A02F8
:10B64C0003D100242046BDE8F081DFF86CC0174F11
:10B65C00174E0260591C1CF803303B80154B61449B
:10B66C003A461868316002F029F8B0B1DFF84C8026
:10B67C003A883168404602F0A5FD0123C6F80080E7
:10B68C002B70DFE70A4B094A19680A4B186802F05D
:10B69C0015F80028D5D12870D4E70124D2E700BFD3
:10B6AC009095002064930020609300206C93002000
:10B6BC0068930020709300205D8B002091950020F2
:10B6CC00024A00231360024A1360704764930020FF
:10B6DC00609300202DE9F8432D4B2E4E2E492F4D13
:10B6EC002F4C304FF61AF608360446F00306304657
:10B6FC00FBF788F94FF0000805F10B0934F80A3C08
:10B70C004FF6FF72934236D001222A70AB701A0AA0
:10B71C0014F8083CEB7014F8073C2B7114F8063C39
:10B72C006B7114F8053CAB7114F8043CEB7114F814
:10B73C00033C2B7214F8013C6B72204614F8023C4B
:10B74C006A70AB7202F0BCFD0F281DD8204602F0C7
:10B75C00B7FD21460246484602F034FD204602F071
:10B76C00AFFD0B3038803888FFF7C6FD3A88294684
:10B77C003046FBF77DF908F10108B8F1140F04F11C
:10B78C001A04BBD1BDE8F8830B233B80EBE700BF69
:10B79C00A8EB0200D0EB0200E3FA0200D1950020E6
:10B7AC009293002012960020304A13782DE9F04134
:10B7BC00002B59D0002313702D4A19461A204FF62E
:10B7CC00FF7400FB03F50133AD5AA54218BF0131DC
:10B7DC00142BF6D1274B284A2848294C294F2A4E9E
:10B7EC00DFF8C080012908BF1A46FEF70DF827497B
:10B7FC002748FEF709F8002534F80A1C4FF6FF73AA
:10B80C00994227D014F8083C022B23D8092994BF5D
:10B81C0020483046FDF7F8FF21463846FDF7F4FF87
:10B82C0014F8071C3046FDF7EFFF14F8061C3046E1
:10B83C00FDF7EAFF14F8023C042B96BF164A174991
:10B84C0052F823103846FDF7DFFF14F9011C40466F
:10B85C00FDF7DAFF0135142D04F11A04CCD1104890
:10B86C00BDE8F041FDF7D0BFBDE8F081EE6F0020E0
:10B87C00889300200DFB020003FB02001CFB02005E
:10B88C009293002073FB02006DFB02007493002066
:10B89C0050FB02006CFB02007CFB020017FB020059
:10B8AC0094F3020077FB0200F0B5404B404C9A88B1
:10B8BC00404E8DB00546ADF8142018680490172240
:10B8CC009B798DF8163000210DEB020002F0A3FCE1
:10B8DC0004A8FDF799FF3848FDF796FF6A681379BD
:10B8EC002370117861705279A270062B51D0072BFE
:10B8FC0001D0052B33D10423E370082323716B682B
:10B90C00DB7863716B689B79A3716B68DB79E3718E
:10B91C006B681B7A23726B685B7A63726B689B7AB9
:10B92C00A3726B68DB7AE3726B681B7B237304A8CE
:10B93C000D23338002F0C4FC0F280ED804A802F0AB
:10B94C00BFFC04A9024604F10D0002F03BFC04A864
:10B95C0002F0B6FC0D30308001E00D2333803088CE
:10B96C00164FFFF7C9FC002332885D1CDBB29342F3
:10B97C0011D31348FDF748FF124B134832880C497A
:10B98C00C01AC008000440F00300FBF771F80DB0BA
:10B99C00F0BD0323E2E7E25C394601A802F09AFB12
:10B9AC0001A8FDF731FF2B46DEE700BFC0FA02000D
:10B9BC00D195002012960020AFFB02000BF602007E
:10B9CC0094F30200A8EB0200D0EB0200A1DF704759
:10B9DC00A3DF704762DF704770B50D4B0D4D1B68D0
:10B9EC002C689C420ED00C4914236343CE18C85AC1
:10B9FC00B27842B9B188FFF7E9FF18B9013404F005
:10BA0C0007042C6070BD08331944FFF7E1FFF4E71D
:10BA1C00B8960020B4960020149600200E4A38B533
:10BA2C0014680E4D631C03F0070313601422624369
:10BA3C00AB18002459810221D981111D29441961A7
:10BA4C0001219C81197219715C719970A852FFF7D0
:10BA5C00C3FF204638BD00BFB896002014960020C6
:10BA6C002DE9F04F0B7899B00246002B40F09680F0
:10BA7C008888B0F5007F40F091808C7992F8200096
:10BA8C00844240F08B8001208DF844004888ADF84A
:10BA9C004600087A0F90BDF85C000C90BDF85A0077
:10BAAC000990BDF84E000B90BDF858000690BDF8FB
:10BABC004C000890BDF856000390BDF85E80BDF8B0
:10BACC004A00BDF852E0BDF850B0BDF854A0BDF826
